{
  "address": "0x880fe78C2E1bd0Ac2c6580Dc99f47C29107d9884",
  "abi": [
    {
      "inputs": [
        {
          "internalType": "address",
          "name": "_bondContract",
          "type": "address"
        }
      ],
      "stateMutability": "nonpayable",
      "type": "constructor"
    },
    {
      "inputs": [
        {
          "internalType": "address",
          "name": "sender",
          "type": "address"
        },
        {
          "internalType": "uint256",
          "name": "balance",
          "type": "uint256"
        },
        {
          "internalType": "uint256",
          "name": "needed",
          "type": "uint256"
        },
        {
          "internalType": "uint256",
          "name": "tokenId",
          "type": "uint256"
        }
      ],
      "name": "ERC1155InsufficientBalance",
      "type": "error"
    },
    {
      "inputs": [
        {
          "internalType": "address",
          "name": "approver",
          "type": "address"
        }
      ],
      "name": "ERC1155InvalidApprover",
      "type": "error"
    },
    {
      "inputs": [
        {
          "internalType": "uint256",
          "name": "idsLength",
          "type": "uint256"
        },
        {
          "internalType": "uint256",
          "name": "valuesLength",
          "type": "uint256"
        }
      ],
      "name": "ERC1155InvalidArrayLength",
      "type": "error"
    },
    {
      "inputs": [
        {
          "internalType": "address",
          "name": "operator",
          "type": "address"
        }
      ],
      "name": "ERC1155InvalidOperator",
      "type": "error"
    },
    {
      "inputs": [
        {
          "internalType": "address",
          "name": "receiver",
          "type": "address"
        }
      ],
      "name": "ERC1155InvalidReceiver",
      "type": "error"
    },
    {
      "inputs": [
        {
          "internalType": "address",
          "name": "sender",
          "type": "address"
        }
      ],
      "name": "ERC1155InvalidSender",
      "type": "error"
    },
    {
      "inputs": [
        {
          "internalType": "address",
          "name": "operator",
          "type": "address"
        },
        {
          "internalType": "address",
          "name": "owner",
          "type": "address"
        }
      ],
      "name": "ERC1155MissingApprovalForAll",
      "type": "error"
    },
    {
      "inputs": [
        {
          "internalType": "address",
          "name": "owner",
          "type": "address"
        }
      ],
      "name": "OwnableInvalidOwner",
      "type": "error"
    },
    {
      "inputs": [
        {
          "internalType": "address",
          "name": "account",
          "type": "address"
        }
      ],
      "name": "OwnableUnauthorizedAccount",
      "type": "error"
    },
    {
      "anonymous": false,
      "inputs": [
        {
          "indexed": true,
          "internalType": "address",
          "name": "account",
          "type": "address"
        },
        {
          "indexed": true,
          "internalType": "address",
          "name": "operator",
          "type": "address"
        },
        {
          "indexed": false,
          "internalType": "bool",
          "name": "approved",
          "type": "bool"
        }
      ],
      "name": "ApprovalForAll",
      "type": "event"
    },
    {
      "anonymous": false,
      "inputs": [
        {
          "indexed": true,
          "internalType": "address",
          "name": "previousOwner",
          "type": "address"
        },
        {
          "indexed": true,
          "internalType": "address",
          "name": "newOwner",
          "type": "address"
        }
      ],
      "name": "OwnershipTransferred",
      "type": "event"
    },
    {
      "anonymous": false,
      "inputs": [
        {
          "indexed": true,
          "internalType": "address",
          "name": "operator",
          "type": "address"
        },
        {
          "indexed": true,
          "internalType": "address",
          "name": "from",
          "type": "address"
        },
        {
          "indexed": true,
          "internalType": "address",
          "name": "to",
          "type": "address"
        },
        {
          "indexed": false,
          "internalType": "uint256[]",
          "name": "ids",
          "type": "uint256[]"
        },
        {
          "indexed": false,
          "internalType": "uint256[]",
          "name": "values",
          "type": "uint256[]"
        }
      ],
      "name": "TransferBatch",
      "type": "event"
    },
    {
      "anonymous": false,
      "inputs": [
        {
          "indexed": true,
          "internalType": "address",
          "name": "operator",
          "type": "address"
        },
        {
          "indexed": true,
          "internalType": "address",
          "name": "from",
          "type": "address"
        },
        {
          "indexed": true,
          "internalType": "address",
          "name": "to",
          "type": "address"
        },
        {
          "indexed": false,
          "internalType": "uint256",
          "name": "id",
          "type": "uint256"
        },
        {
          "indexed": false,
          "internalType": "uint256",
          "name": "value",
          "type": "uint256"
        }
      ],
      "name": "TransferSingle",
      "type": "event"
    },
    {
      "anonymous": false,
      "inputs": [
        {
          "indexed": false,
          "internalType": "string",
          "name": "value",
          "type": "string"
        },
        {
          "indexed": true,
          "internalType": "uint256",
          "name": "id",
          "type": "uint256"
        }
      ],
      "name": "URI",
      "type": "event"
    },
    {
      "inputs": [
        {
          "internalType": "address",
          "name": "account",
          "type": "address"
        },
        {
          "internalType": "uint256",
          "name": "id",
          "type": "uint256"
        }
      ],
      "name": "balanceOf",
      "outputs": [
        {
          "internalType": "uint256",
          "name": "",
          "type": "uint256"
        }
      ],
      "stateMutability": "view",
      "type": "function"
    },
    {
      "inputs": [
        {
          "internalType": "address[]",
          "name": "accounts",
          "type": "address[]"
        },
        {
          "internalType": "uint256[]",
          "name": "ids",
          "type": "uint256[]"
        }
      ],
      "name": "balanceOfBatch",
      "outputs": [
        {
          "internalType": "uint256[]",
          "name": "",
          "type": "uint256[]"
        }
      ],
      "stateMutability": "view",
      "type": "function"
    },
    {
      "inputs": [],
      "name": "bondContract",
      "outputs": [
        {
          "internalType": "contract IERC3475",
          "name": "",
          "type": "address"
        }
      ],
      "stateMutability": "view",
      "type": "function"
    },
    {
      "inputs": [
        {
          "internalType": "address",
          "name": "to",
          "type": "address"
        },
        {
          "internalType": "uint256",
          "name": "tokenId",
          "type": "uint256"
        },
        {
          "internalType": "einput",
          "name": "encryptedAmount",
          "type": "bytes32"
        },
        {
          "internalType": "bytes",
          "name": "inputProof",
          "type": "bytes"
        }
      ],
      "name": "confidentialTransfer",
      "outputs": [],
      "stateMutability": "nonpayable",
      "type": "function"
    },
    {
      "inputs": [
        {
          "internalType": "address",
          "name": "account",
          "type": "address"
        },
        {
          "internalType": "address",
          "name": "operator",
          "type": "address"
        }
      ],
      "name": "isApprovedForAll",
      "outputs": [
        {
          "internalType": "bool",
          "name": "",
          "type": "bool"
        }
      ],
      "stateMutability": "view",
      "type": "function"
    },
    {
      "inputs": [],
      "name": "owner",
      "outputs": [
        {
          "internalType": "address",
          "name": "",
          "type": "address"
        }
      ],
      "stateMutability": "view",
      "type": "function"
    },
    {
      "inputs": [],
      "name": "renounceOwnership",
      "outputs": [],
      "stateMutability": "nonpayable",
      "type": "function"
    },
    {
      "inputs": [
        {
          "internalType": "address",
          "name": "from",
          "type": "address"
        },
        {
          "internalType": "address",
          "name": "to",
          "type": "address"
        },
        {
          "internalType": "uint256[]",
          "name": "ids",
          "type": "uint256[]"
        },
        {
          "internalType": "uint256[]",
          "name": "values",
          "type": "uint256[]"
        },
        {
          "internalType": "bytes",
          "name": "data",
          "type": "bytes"
        }
      ],
      "name": "safeBatchTransferFrom",
      "outputs": [],
      "stateMutability": "nonpayable",
      "type": "function"
    },
    {
      "inputs": [
        {
          "internalType": "address",
          "name": "from",
          "type": "address"
        },
        {
          "internalType": "address",
          "name": "to",
          "type": "address"
        },
        {
          "internalType": "uint256",
          "name": "id",
          "type": "uint256"
        },
        {
          "internalType": "uint256",
          "name": "value",
          "type": "uint256"
        },
        {
          "internalType": "bytes",
          "name": "data",
          "type": "bytes"
        }
      ],
      "name": "safeTransferFrom",
      "outputs": [],
      "stateMutability": "nonpayable",
      "type": "function"
    },
    {
      "inputs": [
        {
          "internalType": "address",
          "name": "operator",
          "type": "address"
        },
        {
          "internalType": "bool",
          "name": "approved",
          "type": "bool"
        }
      ],
      "name": "setApprovalForAll",
      "outputs": [],
      "stateMutability": "nonpayable",
      "type": "function"
    },
    {
      "inputs": [
        {
          "internalType": "bytes4",
          "name": "interfaceId",
          "type": "bytes4"
        }
      ],
      "name": "supportsInterface",
      "outputs": [
        {
          "internalType": "bool",
          "name": "",
          "type": "bool"
        }
      ],
      "stateMutability": "view",
      "type": "function"
    },
    {
      "inputs": [
        {
          "internalType": "address",
          "name": "newOwner",
          "type": "address"
        }
      ],
      "name": "transferOwnership",
      "outputs": [],
      "stateMutability": "nonpayable",
      "type": "function"
    },
    {
      "inputs": [
        {
          "internalType": "uint256",
          "name": "",
          "type": "uint256"
        }
      ],
      "name": "uri",
      "outputs": [
        {
          "internalType": "string",
          "name": "",
          "type": "string"
        }
      ],
      "stateMutability": "view",
      "type": "function"
    },
    {
      "inputs": [
        {
          "internalType": "uint256",
          "name": "classId",
          "type": "uint256"
        },
        {
          "internalType": "uint256",
          "name": "nonce",
          "type": "uint256"
        },
        {
          "internalType": "uint256",
          "name": "publicAmount",
          "type": "uint256"
        },
        {
          "internalType": "uint256",
          "name": "tokenId",
          "type": "uint256"
        }
      ],
      "name": "wrapBond",
      "outputs": [],
      "stateMutability": "nonpayable",
      "type": "function"
    }
  ],
  "transactionHash": "0xc9965919b5e3f9fa6372eb95010829514493b7a87f13f842314296d11eac0ff5",
  "args": [
    "0x5d3DD9f67618b1500f3a03D66921A67dAe09C298"
  ],
  "numDeployments": 1,
  "solcInputHash": "a35534a78e2390d19caf5151ca169a9e",
  "bytecode": "0x608060405234801561000f575f5ffd5b50604051611c78380380611c7883398101604081905261002e9161010f565b336040518060600160405280602c8152602001611c4c602c9139610051816100ae565b506001600160a01b03811661007f57604051631e4fbdf760e01b81525f600482015260240160405180910390fd5b610088816100be565b50600480546001600160a01b0319166001600160a01b039290921691909117905561028e565b60026100ba82826101d4565b5050565b600380546001600160a01b038381166001600160a01b0319831681179093556040519116919082907f8be0079c531659141344cd1fd0a4f28419497f9722a3daafe3b4186f6b6457e0905f90a35050565b5f6020828403121561011f575f5ffd5b81516001600160a01b0381168114610135575f5ffd5b9392505050565b634e487b7160e01b5f52604160045260245ffd5b600181811c9082168061016457607f821691505b60208210810361018257634e487b7160e01b5f52602260045260245ffd5b50919050565b601f8211156101cf57805f5260205f20601f840160051c810160208510156101ad5750805b601f840160051c820191505b818110156101cc575f81556001016101b9565b50505b505050565b81516001600160401b038111156101ed576101ed61013c565b610201816101fb8454610150565b84610188565b6020601f821160018114610233575f831561021c5750848201515b5f19600385901b1c1916600184901b1784556101cc565b5f84815260208120601f198516915b828110156102625787850151825560209485019460019092019101610242565b508482101561027f57868401515f19600387901b60f8161c191681555b50505050600190811b01905550565b6119b18061029b5f395ff3fe608060405234801561000f575f5ffd5b50600436106100e4575f3560e01c8063715018a611610088578063e7004a7a11610063578063e7004a7a146101ec578063e985e9c5146101ff578063f242432a1461023a578063f2fde38b1461024d575f5ffd5b8063715018a6146101ac5780638da5cb5b146101b4578063a22cb465146101d9575f5ffd5b806310d2cc60116100c357806310d2cc60146101515780632eb2c2d61461016657806337062cf9146101795780634e1273f41461018c575f5ffd5b8062fdd58e146100e857806301ffc9a71461010e5780630e89341c14610131575b5f5ffd5b6100fb6100f63660046112b4565b610260565b6040519081526020015b60405180910390f35b61012161011c3660046112f1565b610268565b6040519015158152602001610105565b61014461013f36600461130c565b6102b7565b6040516101059190611351565b61016461015f366004611363565b610349565b005b61016461017436600461152f565b61044f565b6101646101873660046115de565b6104d1565b61019f61019a36600461160d565b6105c1565b604051610105919061170a565b61016461068c565b6003546001600160a01b03165b6040516001600160a01b039091168152602001610105565b6101646101e736600461171c565b61069f565b6004546101c1906001600160a01b031681565b61012161020d366004611755565b6001600160a01b039182165f90815260016020908152604080832093909416825291909152205460ff1690565b610164610248366004611786565b6106ae565b61016461025b3660046117da565b61072b565b5f5b92915050565b5f6001600160e01b03198216636cdb3d1360e11b148061029857506001600160e01b031982166303a24d0760e21b145b8061026257506301ffc9a760e01b6001600160e01b0319831614610262565b6060600280546102c6906117f3565b80601f01602080910402602001604051908101604052809291908181526020018280546102f2906117f3565b801561033d5780601f106103145761010080835404028352916020019161033d565b820191905f5260205f20905b81548152906001019060200180831161032057829003601f168201915b50505050509050919050565b5f6103898484848080601f0160208091040260200160405190810160405280939291908181526020018383808284375f9201919091525061076892505050565b5f8681526005602090815260408083203384529091529020549091506103af908261077c565b5f868152600560209081526040808320338452909152808220929092556001600160a01b038816815220546103e490826107aa565b5f8681526005602090815260408083206001600160a01b038b16845290915280822092909255338082529190205461041b916107d8565b5f8581526005602090815260408083206001600160a01b038a16845290915290205461044790876107d8565b505050505050565b336001600160a01b038616811480159061048e57506001600160a01b038087165f9081526001602090815260408083209385168352929052205460ff16155b156104c45760405163711bec9160e11b81526001600160a01b038083166004830152871660248201526044015b60405180910390fd5b61044786868686866107e2565b60048054604051626d792560e21b815233928101929092523060248301526044820186905260648201859052608482018490526001600160a01b0316906301b5e4949060a4015f604051808303815f87803b15801561052e575f5ffd5b505af1158015610540573d5f5f3e3d5ffd5b505050505f6105548363ffffffff16610840565b5f83815260056020908152604080832033845290915290205490915061057a90826107aa565b5f8381526005602090815260408083203380855292529091208290556105a091906107d8565b6105ba33838560405180602001604052805f81525061084c565b5050505050565b606081518351146105f25781518351604051635b05999160e01b8152600481019290925260248201526044016104bb565b5f835167ffffffffffffffff81111561060d5761060d6113f1565b604051908082528060200260200182016040528015610636578160200160208202803683370190505b5090505f5b84518110156106845760208082028601015161065f90602080840287010151610260565b8282815181106106715761067161182b565b602090810291909101015260010161063b565b509392505050565b6106946108a7565b61069d5f6108d4565b565b6106aa33838361093d565b5050565b336001600160a01b03861681148015906106ed57506001600160a01b038087165f9081526001602090815260408083209385168352929052205460ff16155b1561071e5760405163711bec9160e11b81526001600160a01b038083166004830152871660248201526044016104bb565b61044786868686866109d1565b6107336108a7565b6001600160a01b03811661075c57604051631e4fbdf760e01b81525f60048201526024016104bb565b610765816108d4565b50565b5f61077583836004610a5d565b9392505050565b5f8261078e5761078b5f610840565b92505b8161079f5761079c5f610840565b91505b61077583835f610b81565b5f826107bc576107b95f610840565b92505b816107cd576107ca5f610840565b91505b61077583835f610c64565b6106aa8282610d01565b6001600160a01b03841661080b57604051632bfa23e760e11b81525f60048201526024016104bb565b6001600160a01b03851661083357604051626a0d4560e21b81525f60048201526024016104bb565b6105ba8585858585610d81565b5f610262826004610dd4565b6001600160a01b03841661087557604051632bfa23e760e11b81525f60048201526024016104bb565b604080516001808252602082018690528183019081526060820185905260808201909252906104475f87848487610d81565b6003546001600160a01b0316331461069d5760405163118cdaa760e01b81523360048201526024016104bb565b600380546001600160a01b038381167fffffffffffffffffffffffff0000000000000000000000000000000000000000831681179093556040519116919082907f8be0079c531659141344cd1fd0a4f28419497f9722a3daafe3b4186f6b6457e0905f90a35050565b6001600160a01b0382166109655760405162ced3e160e81b81525f60048201526024016104bb565b6001600160a01b038381165f81815260016020908152604080832094871680845294825291829020805460ff191686151590811790915591519182527f17307eab39ab6107e8899845ad3d59bd9653f200f220920489ca2b5937696c31910160405180910390a3505050565b6001600160a01b0384166109fa57604051632bfa23e760e11b81525f60048201526024016104bb565b6001600160a01b038516610a2257604051626a0d4560e21b81525f60048201526024016104bb565b60408051600180825260208201869052818301908152606082018590526080820190925290610a548787848487610d81565b50505050505050565b7fed8d60e34876f751cc8b014c560745351147d9de11b9347c854e881b128ea601546040516302e817ff60e41b81525f917fed8d60e34876f751cc8b014c560745351147d9de11b9347c854e881b128ea600916001600160a01b0390911690632e817ff090610ada9088903390899060f88a901b9060040161183f565b6020604051808303815f875af1158015610af6573d5f5f3e3d5ffd5b505050506040513d601f19601f82011682018060405250810190610b1a919061187d565b81546040516346ce4e4960e11b8152600481018390523360248201529193506001600160a01b031690638d9c9c92906044015f604051808303815f87803b158015610b63575f5ffd5b505af1158015610b75573d5f5f3e3d5ffd5b50505050509392505050565b5f5f8215610b945750600160f81b610b97565b505f5b7fed8d60e34876f751cc8b014c560745351147d9de11b9347c854e881b128ea60154604051638c14cc2160e01b815260048101879052602481018690526001600160f81b0319831660448201527fed8d60e34876f751cc8b014c560745351147d9de11b9347c854e881b128ea600916001600160a01b031690638c14cc21906064015b6020604051808303815f875af1158015610c36573d5f5f3e3d5ffd5b505050506040513d601f19601f82011682018060405250810190610c5a919061187d565b9695505050505050565b5f5f8215610c775750600160f81b610c7a565b505f5b7fed8d60e34876f751cc8b014c560745351147d9de11b9347c854e881b128ea6015460405163f953e42760e01b815260048101879052602481018690526001600160f81b0319831660448201527fed8d60e34876f751cc8b014c560745351147d9de11b9347c854e881b128ea600916001600160a01b03169063f953e42790606401610c1a565b5f7fed8d60e34876f751cc8b014c560745351147d9de11b9347c854e881b128ea6008054604051631974142760e21b8152600481018690526001600160a01b0385811660248301529293509116906365d0509c906044015f604051808303815f87803b158015610d6f575f5ffd5b505af1158015610a54573d5f5f3e3d5ffd5b610d8d85858585610e82565b6001600160a01b038416156105ba5782513390600103610dc65760208481015190840151610dbf838989858589611091565b5050610447565b6104478187878787876111b2565b5f807fed8d60e34876f751cc8b014c560745351147d9de11b9347c854e881b128ea6006001810154604051631ce2e8d760e31b8152600481018790526001600160f81b031960f887901b1660248201529192506001600160a01b03169063e71746b8906044016020604051808303815f875af1158015610e56573d5f5f3e3d5ffd5b505050506040513d601f19601f82011682018060405250810190610e7a919061187d565b949350505050565b8051825114610eb15781518151604051635b05999160e01b8152600481019290925260248201526044016104bb565b335f5b8351811015610fb3576020818102858101820151908501909101516001600160a01b03881615610f65575f828152602081815260408083206001600160a01b038c16845290915290205481811015610f3f576040516303dee4c560e01b81526001600160a01b038a1660048201526024810182905260448101839052606481018490526084016104bb565b5f838152602081815260408083206001600160a01b038d16845290915290209082900390555b6001600160a01b03871615610fa9575f828152602081815260408083206001600160a01b038b16845290915281208054839290610fa3908490611894565b90915550505b5050600101610eb4565b5082516001036110335760208301515f906020840151909150856001600160a01b0316876001600160a01b0316846001600160a01b03167fc3d58168c5ae7397731d063d5bbf3d657854427343f4c083240f7aacaa2d0f628585604051611024929190918252602082015260400190565b60405180910390a450506105ba565b836001600160a01b0316856001600160a01b0316826001600160a01b03167f4a39dc06d4c0dbc64b70af90fd698a233a518aa5d07e595d983b8c0526c8f7fb86866040516110829291906118b3565b60405180910390a45050505050565b6001600160a01b0384163b156104475760405163f23a6e6160e01b81526001600160a01b0385169063f23a6e61906110d590899089908890889088906004016118e0565b6020604051808303815f875af192505050801561110f575060408051601f3d908101601f1916820190925261110c91810190611927565b60015b611176573d80801561113c576040519150601f19603f3d011682016040523d82523d5f602084013e611141565b606091505b5080515f0361116e57604051632bfa23e760e11b81526001600160a01b03861660048201526024016104bb565b805160208201fd5b6001600160e01b0319811663f23a6e6160e01b14610a5457604051632bfa23e760e11b81526001600160a01b03861660048201526024016104bb565b6001600160a01b0384163b156104475760405163bc197c8160e01b81526001600160a01b0385169063bc197c81906111f69089908990889088908890600401611942565b6020604051808303815f875af1925050508015611230575060408051601f3d908101601f1916820190925261122d91810190611927565b60015b61125d573d80801561113c576040519150601f19603f3d011682016040523d82523d5f602084013e611141565b6001600160e01b0319811663bc197c8160e01b14610a5457604051632bfa23e760e11b81526001600160a01b03861660048201526024016104bb565b80356001600160a01b03811681146112af575f5ffd5b919050565b5f5f604083850312156112c5575f5ffd5b6112ce83611299565b946020939093013593505050565b6001600160e01b031981168114610765575f5ffd5b5f60208284031215611301575f5ffd5b8135610775816112dc565b5f6020828403121561131c575f5ffd5b5035919050565b5f81518084528060208401602086015e5f602082860101526020601f19601f83011685010191505092915050565b602081525f6107756020830184611323565b5f5f5f5f5f60808688031215611377575f5ffd5b61138086611299565b94506020860135935060408601359250606086013567ffffffffffffffff8111156113a9575f5ffd5b8601601f810188136113b9575f5ffd5b803567ffffffffffffffff8111156113cf575f5ffd5b8860208284010111156113e0575f5ffd5b959894975092955050506020019190565b634e487b7160e01b5f52604160045260245ffd5b604051601f8201601f1916810167ffffffffffffffff8111828210171561142e5761142e6113f1565b604052919050565b5f67ffffffffffffffff82111561144f5761144f6113f1565b5060051b60200190565b5f82601f830112611468575f5ffd5b813561147b61147682611436565b611405565b8082825260208201915060208360051b86010192508583111561149c575f5ffd5b602085015b838110156114b95780358352602092830192016114a1565b5095945050505050565b5f82601f8301126114d2575f5ffd5b813567ffffffffffffffff8111156114ec576114ec6113f1565b6114ff601f8201601f1916602001611405565b818152846020838601011115611513575f5ffd5b816020850160208301375f918101602001919091529392505050565b5f5f5f5f5f60a08688031215611543575f5ffd5b61154c86611299565b945061155a60208701611299565b9350604086013567ffffffffffffffff811115611575575f5ffd5b61158188828901611459565b935050606086013567ffffffffffffffff81111561159d575f5ffd5b6115a988828901611459565b925050608086013567ffffffffffffffff8111156115c5575f5ffd5b6115d1888289016114c3565b9150509295509295909350565b5f5f5f5f608085870312156115f1575f5ffd5b5050823594602084013594506040840135936060013592509050565b5f5f6040838503121561161e575f5ffd5b823567ffffffffffffffff811115611634575f5ffd5b8301601f81018513611644575f5ffd5b803561165261147682611436565b8082825260208201915060208360051b850101925087831115611673575f5ffd5b6020840193505b8284101561169c5761168b84611299565b82526020938401939091019061167a565b9450505050602083013567ffffffffffffffff8111156116ba575f5ffd5b6116c685828601611459565b9150509250929050565b5f8151808452602084019350602083015f5b828110156117005781518652602095860195909101906001016116e2565b5093949350505050565b602081525f61077560208301846116d0565b5f5f6040838503121561172d575f5ffd5b61173683611299565b91506020830135801515811461174a575f5ffd5b809150509250929050565b5f5f60408385031215611766575f5ffd5b61176f83611299565b915061177d60208401611299565b90509250929050565b5f5f5f5f5f60a0868803121561179a575f5ffd5b6117a386611299565b94506117b160208701611299565b93506040860135925060608601359150608086013567ffffffffffffffff8111156115c5575f5ffd5b5f602082840312156117ea575f5ffd5b61077582611299565b600181811c9082168061180757607f821691505b60208210810361182557634e487b7160e01b5f52602260045260245ffd5b50919050565b634e487b7160e01b5f52603260045260245ffd5b8481526001600160a01b0384166020820152608060408201525f6118666080830185611323565b905060ff60f81b8316606083015295945050505050565b5f6020828403121561188d575f5ffd5b5051919050565b8082018082111561026257634e487b7160e01b5f52601160045260245ffd5b604081525f6118c560408301856116d0565b82810360208401526118d781856116d0565b95945050505050565b6001600160a01b03861681526001600160a01b038516602082015283604082015282606082015260a060808201525f61191c60a0830184611323565b979650505050505050565b5f60208284031215611937575f5ffd5b8151610775816112dc565b6001600160a01b03861681526001600160a01b038516602082015260a060408201525f61197260a08301866116d0565b828103606084015261198481866116d0565b905082810360808401526119988185611323565b9897505050505050505056fea164736f6c634300081b000a68747470733a2f2f6170692e66726170707563696e6f2e696f2f6d657461646174612f7b69647d2e6a736f6e",
  "devdoc": {
    "errors": {
      "ERC1155InsufficientBalance(address,uint256,uint256,uint256)": [
        {
          "details": "Indicates an error related to the current `balance` of a `sender`. Used in transfers.",
          "params": {
            "balance": "Current balance for the interacting account.",
            "needed": "Minimum amount required to perform a transfer.",
            "sender": "Address whose tokens are being transferred.",
            "tokenId": "Identifier number of a token."
          }
        }
      ],
      "ERC1155InvalidApprover(address)": [
        {
          "details": "Indicates a failure with the `approver` of a token to be approved. Used in approvals.",
          "params": {
            "approver": "Address initiating an approval operation."
          }
        }
      ],
      "ERC1155InvalidArrayLength(uint256,uint256)": [
        {
          "details": "Indicates an array length mismatch between ids and values in a safeBatchTransferFrom operation. Used in batch transfers.",
          "params": {
            "idsLength": "Length of the array of token identifiers",
            "valuesLength": "Length of the array of token amounts"
          }
        }
      ],
      "ERC1155InvalidOperator(address)": [
        {
          "details": "Indicates a failure with the `operator` to be approved. Used in approvals.",
          "params": {
            "operator": "Address that may be allowed to operate on tokens without being their owner."
          }
        }
      ],
      "ERC1155InvalidReceiver(address)": [
        {
          "details": "Indicates a failure with the token `receiver`. Used in transfers.",
          "params": {
            "receiver": "Address to which tokens are being transferred."
          }
        }
      ],
      "ERC1155InvalidSender(address)": [
        {
          "details": "Indicates a failure with the token `sender`. Used in transfers.",
          "params": {
            "sender": "Address whose tokens are being transferred."
          }
        }
      ],
      "ERC1155MissingApprovalForAll(address,address)": [
        {
          "details": "Indicates a failure with the `operator`s approval. Used in transfers.",
          "params": {
            "operator": "Address that may be allowed to operate on tokens without being their owner.",
            "owner": "Address of the current owner of a token."
          }
        }
      ],
      "OwnableInvalidOwner(address)": [
        {
          "details": "The owner is not a valid owner account. (eg. `address(0)`)"
        }
      ],
      "OwnableUnauthorizedAccount(address)": [
        {
          "details": "The caller account is not authorized to perform an operation."
        }
      ]
    },
    "events": {
      "ApprovalForAll(address,address,bool)": {
        "details": "Emitted when `account` grants or revokes permission to `operator` to transfer their tokens, according to `approved`."
      },
      "TransferBatch(address,address,address,uint256[],uint256[])": {
        "details": "Equivalent to multiple {TransferSingle} events, where `operator`, `from` and `to` are the same for all transfers."
      },
      "TransferSingle(address,address,address,uint256,uint256)": {
        "details": "Emitted when `value` amount of tokens of type `id` are transferred from `from` to `to` by `operator`."
      },
      "URI(string,uint256)": {
        "details": "Emitted when the URI for token type `id` changes to `value`, if it is a non-programmatic URI. If an {URI} event was emitted for `id`, the standard https://eips.ethereum.org/EIPS/eip-1155#metadata-extensions[guarantees] that `value` will equal the value returned by {IERC1155MetadataURI-uri}."
      }
    },
    "kind": "dev",
    "methods": {
      "balanceOf(address,uint256)": {
        "details": "Returns the value of tokens of token type `id` owned by `account`."
      },
      "balanceOfBatch(address[],uint256[])": {
        "details": "See {IERC1155-balanceOfBatch}. Requirements: - `accounts` and `ids` must have the same length."
      },
      "isApprovedForAll(address,address)": {
        "details": "Returns true if `operator` is approved to transfer ``account``'s tokens. See {setApprovalForAll}."
      },
      "owner()": {
        "details": "Returns the address of the current owner."
      },
      "renounceOwnership()": {
        "details": "Leaves the contract without owner. It will not be possible to call `onlyOwner` functions. Can only be called by the current owner. NOTE: Renouncing ownership will leave the contract without an owner, thereby disabling any functionality that is only available to the owner."
      },
      "safeBatchTransferFrom(address,address,uint256[],uint256[],bytes)": {
        "details": "xref:ROOT:erc1155.adoc#batch-operations[Batched] version of {safeTransferFrom}. WARNING: This function can potentially allow a reentrancy attack when transferring tokens to an untrusted contract, when invoking {IERC1155Receiver-onERC1155BatchReceived} on the receiver. Ensure to follow the checks-effects-interactions pattern and consider employing reentrancy guards when interacting with untrusted contracts. Emits either a {TransferSingle} or a {TransferBatch} event, depending on the length of the array arguments. Requirements: - `ids` and `values` must have the same length. - If `to` refers to a smart contract, it must implement {IERC1155Receiver-onERC1155BatchReceived} and return the acceptance magic value."
      },
      "safeTransferFrom(address,address,uint256,uint256,bytes)": {
        "details": "Transfers a `value` amount of tokens of type `id` from `from` to `to`. WARNING: This function can potentially allow a reentrancy attack when transferring tokens to an untrusted contract, when invoking {IERC1155Receiver-onERC1155Received} on the receiver. Ensure to follow the checks-effects-interactions pattern and consider employing reentrancy guards when interacting with untrusted contracts. Emits a {TransferSingle} event. Requirements: - `to` cannot be the zero address. - If the caller is not `from`, it must have been approved to spend ``from``'s tokens via {setApprovalForAll}. - `from` must have a balance of tokens of type `id` of at least `value` amount. - If `to` refers to a smart contract, it must implement {IERC1155Receiver-onERC1155Received} and return the acceptance magic value."
      },
      "setApprovalForAll(address,bool)": {
        "details": "Grants or revokes permission to `operator` to transfer the caller's tokens, according to `approved`, Emits an {ApprovalForAll} event. Requirements: - `operator` cannot be the zero address."
      },
      "supportsInterface(bytes4)": {
        "details": "Returns true if this contract implements the interface defined by `interfaceId`. See the corresponding https://eips.ethereum.org/EIPS/eip-165#how-interfaces-are-identified[ERC section] to learn more about how these ids are created. This function call must use less than 30 000 gas."
      },
      "transferOwnership(address)": {
        "details": "Transfers ownership of the contract to a new account (`newOwner`). Can only be called by the current owner."
      },
      "uri(uint256)": {
        "details": "See {IERC1155MetadataURI-uri}. This implementation returns the same URI for *all* token types. It relies on the token type ID substitution mechanism https://eips.ethereum.org/EIPS/eip-1155#metadata[defined in the ERC]. Clients calling this function must replace the `\\{id\\}` substring with the actual token type ID."
      },
      "wrapBond(uint256,uint256,uint256,uint256)": {
        "params": {
          "classId": "The bond class from ERC-3475",
          "nonce": "The bond nonce (issuance) from ERC-3475",
          "publicAmount": "The number of bonds to lock",
          "tokenId": "The ERC-1155 ID to receive as a receipt"
        }
      }
    },
    "version": 1
  },
  "userdoc": {
    "kind": "user",
    "methods": {
      "confidentialTransfer(address,uint256,bytes32,bytes)": {
        "notice": "Confidential Transfer of the wrapper tokens."
      },
      "wrapBond(uint256,uint256,uint256,uint256)": {
        "notice": "Wrap an ERC-3475 Bond into an encrypted ERC-1155 receipt."
      }
    },
    "version": 1
  },
  "storageLayout": {
    "storage": [
      {
        "astId": 326,
        "contract": "contracts/Frappucino.sol:Frappucino",
        "label": "_balances",
        "offset": 0,
        "slot": "0",
        "type": "t_mapping(t_uint256,t_mapping(t_address,t_uint256))"
      },
      {
        "astId": 332,
        "contract": "contracts/Frappucino.sol:Frappucino",
        "label": "_operatorApprovals",
        "offset": 0,
        "slot": "1",
        "type": "t_mapping(t_address,t_mapping(t_address,t_bool))"
      },
      {
        "astId": 334,
        "contract": "contracts/Frappucino.sol:Frappucino",
        "label": "_uri",
        "offset": 0,
        "slot": "2",
        "type": "t_string_storage"
      },
      {
        "astId": 8,
        "contract": "contracts/Frappucino.sol:Frappucino",
        "label": "_owner",
        "offset": 0,
        "slot": "3",
        "type": "t_address"
      },
      {
        "astId": 6330,
        "contract": "contracts/Frappucino.sol:Frappucino",
        "label": "bondContract",
        "offset": 0,
        "slot": "4",
        "type": "t_contract(IERC3475)6323"
      },
      {
        "astId": 6337,
        "contract": "contracts/Frappucino.sol:Frappucino",
        "label": "_encryptedBalances",
        "offset": 0,
        "slot": "5",
        "type": "t_mapping(t_uint256,t_mapping(t_address,t_userDefinedValueType(euint32)8290))"
      }
    ],
    "types": {
      "t_address": {
        "encoding": "inplace",
        "label": "address",
        "numberOfBytes": "20"
      },
      "t_bool": {
        "encoding": "inplace",
        "label": "bool",
        "numberOfBytes": "1"
      },
      "t_contract(IERC3475)6323": {
        "encoding": "inplace",
        "label": "contract IERC3475",
        "numberOfBytes": "20"
      },
      "t_mapping(t_address,t_bool)": {
        "encoding": "mapping",
        "key": "t_address",
        "label": "mapping(address => bool)",
        "numberOfBytes": "32",
        "value": "t_bool"
      },
      "t_mapping(t_address,t_mapping(t_address,t_bool))": {
        "encoding": "mapping",
        "key": "t_address",
        "label": "mapping(address => mapping(address => bool))",
        "numberOfBytes": "32",
        "value": "t_mapping(t_address,t_bool)"
      },
      "t_mapping(t_address,t_uint256)": {
        "encoding": "mapping",
        "key": "t_address",
        "label": "mapping(address => uint256)",
        "numberOfBytes": "32",
        "value": "t_uint256"
      },
      "t_mapping(t_address,t_userDefinedValueType(euint32)8290)": {
        "encoding": "mapping",
        "key": "t_address",
        "label": "mapping(address => euint32)",
        "numberOfBytes": "32",
        "value": "t_userDefinedValueType(euint32)8290"
      },
      "t_mapping(t_uint256,t_mapping(t_address,t_uint256))": {
        "encoding": "mapping",
        "key": "t_uint256",
        "label": "mapping(uint256 => mapping(address => uint256))",
        "numberOfBytes": "32",
        "value": "t_mapping(t_address,t_uint256)"
      },
      "t_mapping(t_uint256,t_mapping(t_address,t_userDefinedValueType(euint32)8290))": {
        "encoding": "mapping",
        "key": "t_uint256",
        "label": "mapping(uint256 => mapping(address => euint32))",
        "numberOfBytes": "32",
        "value": "t_mapping(t_address,t_userDefinedValueType(euint32)8290)"
      },
      "t_string_storage": {
        "encoding": "bytes",
        "label": "string",
        "numberOfBytes": "32"
      },
      "t_uint256": {
        "encoding": "inplace",
        "label": "uint256",
        "numberOfBytes": "32"
      },
      "t_userDefinedValueType(euint32)8290": {
        "encoding": "inplace",
        "label": "euint32",
        "numberOfBytes": "32"
      }
    }
  }
}